:020000040800F2
:10000000580D0020D9010008253800086137000884
:1000100021380008BD1000085D4500080000000000
:100020000000000000000000000000002D38000863
:10003000CD10000800000000293800083138000801
:10004000F3010008F3010008F3010008F3010008C0
:10005000F3010008F3010008F3010008F3010008B0
:10006000F3010008F3010008F3010008F3010008A0
:10007000F3010008F3010008F3010008F301000890
:10008000F3010008C1100008F3010008000000009F
:10009000000000000000000000000000F301000864
:1000A000F3010008CD390008C5380008F301000845
:1000B000F3010008F30100080D3B0008F3010008FC
:1000C000F3010008F3010008F3010008F301000840
:1000D000F3010008F3010008F3010008F301000830
:1000E000F3010008F3010008F3010008000000001C
:1000F0000000000000000000000000000000000000
:1001000000000000000000000000000000000000EF
:100110000000000000000000353B0008213C000802
:1001200000F002F800F048F80AA090E8000C8244C1
:100130008344AAF10107DA4501D100F03DF8AFF29E
:10014000090EBAE80F0013F0010F18BFFB1A43F0B5
:1001500001031847FC5600001C570000103A24BF4A
:1001600078C878C1FAD8520724BF30C830C144BF1C
:1001700004680C607047000000230024002500265E
:10018000103A28BF78C1FBD8520728BF30C148BFFA
:100190000B607047642900F07B80002070471FB51A
:1001A00000F032FB04000020002105F0BDF9401CE6
:1001B00060601FBD10B510BD00F001FB1146FFF7D8
:1001C000EEFF04F01BFA00F031FB03B4FFF7F2FF7F
:1001D00003BC00F075FB0000094880470948004750
:1001E000FEE7FEE7FEE7FEE7FEE7FEE7FEE7FEE7E7
:1001F000FEE7FEE704480549054A064B7047000044
:10020000BD3800082101000858070020580D0020C3
:1002100058090020580900200FB41CB5074B06AA46
:100220007B4469460090059800F0FBF90020694680
:1002300000F00AFA1CBC5DF814FB00002504000065
:1002400070B5044685690068C10601D5302600E016
:100250002026C00707D070BDD4E901213046904761
:10026000206A401C20626D1EF6D570BD70B5044634
:1002700085690078C00707D170BDD4E9012120202D
:100280009047206A401C20626D1EF6D570BD0000AC
:100290002DE9F0410646002410687529314616A55F
:1002A00010D0AFF30080002802DA404213A507E027
:1002B00031688A0701D512A502E0490704D511A5C6
:1002C000012401E0AFF3008000210A2206F1240797
:1002D00009E0B0FBF2FCB0FBF2F302FB1C00303093
:1002E00078541846491C0028F3D123462A46304644
:1002F000BDE8F04100F036B9000000002D0000001C
:100300002B000000200000002DE9F05F8946044624
:100310004FF0000ADFF824B1FB44C0F820A02046CB
:10032000E168884700287DD0252806D0D4E901213E
:100330009047206A401C2062F1E700255F46204676
:10034000E16888472028064607DB312E05D2B81918
:1003500010F8200C08B10543F1E7A80701D525F0F6
:100360000405C4F81CA00027C4F818A02A2E09D040
:10037000304605F0D1F838B304EB8708303EC8F8B2
:10038000186019E059F8041B204604EB87029161BC
:10039000E1688847012F064618D1E069002820DA75
:1003A00025F020051DE0D8F8180000EB800006EBD2
:1003B00040003038C8F818002046E16888470646F3
:1003C00005F0AAF80028EED1012F0AD02E2E08D170
:1003D0002046E16888477F1C0646022F45F020052D
:1003E000C4DBA069002803DA404245F00105A061A2
:1003F000E80701D025F01005A6B1A6F141001928A3
:1004000002D8203645F400654A463146204625602C
:100410004D46FFF7BFFE60B1012807D0ED1D25F066
:10042000070000E007E000F1080978E705F104099A
:1004300075E730467AE7206ABDE8F09FB8540000BF
:1004400070B5064600F08AF80468054630460A2270
:10045000002100F0FEF82C6070BD40EA0103024666
:1004600030B59B0710D14FF0013400E008C208C935
:100470001D1B9D4315EAC41FF8D013F0FF0102F8BD
:10048000011B0DD01B0AF8E711F8013B002B02F805
:10049000013B05D011F8013B002B02F8013BF3D1E1
:1004A00030BD02F0FF0343EA032242EA024200F0B9
:1004B0000AB94FF0000200B513469446964620391B
:1004C00022BFA0E80C50A0E80C50B1F12001BFF40D
:1004D000F7AF090728BFA0E80C5048BF0CC05DF873
:1004E00004EB890028BF40F8042B08BF704748BFC1
:1004F00020F8022B11F0804F18BF00F8012B704735
:1005000010B5044610F0030F08BF11F0030F40F0C0
:1005100015804FF0013E121FC0F20E8051F8043BCF
:10052000A3EB0E0C2CEA030C1CEACE1C08BF40F80F
:10053000043BF0D0A1F1040102F10402521E08DBD9
:1005400011F8013B00F8013B002BF7D1114600F0F8
:10055000B8F8204610BD7047704770470048704794
:10056000C80100202DE9F0470D4699469246044601
:1005700000F124080168880604D5E06921F0100123
:10058000216000E00120A84201DD471B00E00027B8
:10059000A1697A1902EB0900081AA0612078C00647
:1005A00002D42046FFF74CFE002608E0D4E90121E2
:1005B0001AF806009047206A401C761C20624E45BF
:1005C000F4DB2078C0060AD52046FFF739FE06E0A6
:1005D000D4E9012130209047206A401C2062381E57
:1005E000A7F10107F4DC07E0D4E9012118F80500C0
:1005F0009047206A401C2062281EA5F10105F3DC0B
:100600002046FFF733FE2078000602D50220BDE821
:10061000F0870120FBE7000001694A1C02610878AD
:10062000704700B58FB0CDE9013100210591054932
:100630007944CDE9031011466846FFF765FE0FB017
:1006400000BD0000E5FFFFFF0A6802F8010B0A6029
:1006500070472DE9F04791460F4680460446002634
:1006600014F8015B2DB100F053F80068405DC0073D
:10067000F6D12B2D02D02D2D18D0641E4A463946B6
:10068000204600F04DF827B13968A14201D1C7F8E2
:1006900000804FF0020471050BD54042002803DDB5
:1006A000FFF75CFF0460A007BDE8F08746F48066B2
:1006B000E4E70028F8DAFFF751FF04606FF000402C
:1006C000F2E74FF000020429C0F0128010F0030C92
:1006D0003FF4F1AECCF1040CBCF1020F18BF00F8EE
:1006E000012BA8BF20F8022BA1EB0C01FFF7E3BE02
:1006F0005FEAC17C24BF00F8012B00F8012B48BF42
:1007000000F8012B7047000000487047C801002026
:1007100010B500F079F8001D10BD00BF0D4E0000AF
:100720002DE9F05F824615468B4600270AF1010449
:10073000B9460078302801D09DB113E014F8010BC0
:100740000127782803D0582801D045B10AE00DB11F
:10075000102D07D1002714F8010B102502E0082501
:1007600000E00A250026B0460EE005FB080005FB68
:1007700006F101271FFA80F801EB1046B6F5803F1D
:1007800000D3B94614F8010B294600F041F80028BF
:10079000EBDABBF1000F05D00FB1641E00E0544648
:1007A000CBF80040B9F1000F06D0FFF7D7FE0221C9
:1007B0000160C81EBDE8F09F48EA0640FAE77546AA
:1007C000FFF7A2FFAE4605006946534620F007003A
:1007D000854618B020B5FFF70DFDBDE820404FF06D
:1007E00000064FF000074FF000084FF0000BAC463A
:1007F000ACE8C009ACE8C009ACE8C009ACE8C00985
:1008000021F007018D46704700487047E80100203D
:100810003A2800D2303820F02002412A01D3A2F138
:100820003700884201D34FF0FF30704710B50446BF
:10083000AFF300802046BDE81040FFF7C6BC0000C3
:100840004FF0013C50F8042B51F8043B9A4221D15F
:10085000A2EB0C03934313EACC1317D150F8042BEB
:1008600051F8043B9A4215D1A2EB0C03934313EACF
:10087000CC130BD150F8042B51F8043B9A4209D108
:10088000A2EB0C03934313EACC13DBD04FF0000030
:10089000704700BFD01A01BAB1FA81F101F0180116
:1008A00022FA01F0CB40DBB2C0B2C01AC1F1200184
:1008B0002CFA01F3D11A914311EAC311E6D1704722
:1008C00001491820ABBEFEE7260002007047000079
:1008D000B0B582B004460020019021688A68D20732
:1008E0003DD1886840F00100886040F20400C2F207
:1008F000000000684DF68361C4F21B31A0FB0101CA
:10090000880C00BF0190019810B101980138F9E7F7
:1009100001F04EF921688968C9071CD1054603E03A
:1009200020688068C00719D101F042F9401B0328F4
:10093000F6D320688068C007F2D1A06A40F01000AA
:10094000A062E06A40F00100E062002084F8240028
:10095000012002B0B0BD002002B0B0BD002002B046
:10096000B0BD00002DE9F04381B00023ADF80230A6
:10097000BDF802301F2B3BD840F2000C40F2F428A7
:10098000C2F2000C4FF480794FF0B00EC2F20008B2
:10099000BDF802509CF800609CF800709CF8004084
:1009A00001370134B9FBF7F7B9FBF4F40136B9FBB1
:1009B000F6F6B1FBF7F7B2FBF4F405F01F05B0FB58
:1009C000F6F607FB0EF7C4EB041405EB45053F0AEA
:1009D000240908EB050308F805705E709C70BDF8EB
:1009E00002300133ADF80230BDF80230202BCFD3F6
:1009F00001B0BDE8F08300002DE9F04101F0FAFA02
:100A000041F20401C4F202010968022211F4605F9C
:100A100008BF0122504340F27C52C2F2000248F665
:100A200059311468000AC0F24F110022A0FB0101E5
:100A3000A2624FF0FF32080902EB111189B24FF0A8
:100A40000108E162C4F8148004F0B3FD45F2EC172C
:100A5000C1F6B8674EF68533C3F6E1733A460546EC
:100A60000E4604F0B9FD04F075FD40F2EC210138AA
:100A7000C2F200014EF685330870C3F6D1732846E2
:100A800031463A4604F0A8FD04F064FD40F2ED2141
:100A90000138C2F20001087040F22820C2F20000C2
:100AA00080F8008020460421012203F043FC01204D
:100AB000BDE8F04100F060BF2DE9F04782B040F2A0
:100AC0002821C2F20001002040F22A280870C2F258
:100AD0000008B8F80010002940F0F28040F21841F8
:100AE000C2F2000191F82110012940F0E9800020B4
:100AF0008DF807009DF8070007286DD840F2F42014
:100B000040F2ED2140F2EC2540F22C23C2F200002D
:100B1000C2F20001C2F20005C2F2000307789DF89C
:100B200007602A46B7403F0658BF0A4612789DF82C
:100B3000077043F8272042789DF80770BA401206E4
:100B40002A4658BF0A4612789DF8077003EB8707BC
:100B50003A6282789DF80770BA4012062A4658BF5A
:100B60000A4612789DF8077003EB87073A64C2784B
:100B70009DF80770BA4012062A4658BF0A461278F6
:100B80009DF8077003EB87073A6602799DF80770B6
:100B9000BA4012062A4658BF0A4612789DF80770D6
:100BA00003EB8707C7F8802042799DF80770BA40A9
:100BB00012062A4658BF0A4612789DF8077003EBC2
:100BC0008707C7F8A0209DF8072001328DF807207D
:100BD0009DF80720082AA1D340F27C5640F6C94A66
:100BE00040F6C96744F2593540F22C24C2F200069F
:100BF0004FF00209C0F6000AC0F60007C0F6000573
:100C0000C2F2000496F83F000228FBD096F83F009D
:100C10000128F7D186F83F90B06A3168C0F828A063
:100C2000B06A01F1380221463023C0E90B7500F0AB
:100C300057FE0028E6D13068C16841F48062A0F117
:100C40008041A1F596314FEAB1210729C26009D848
:100C5000012202FA01F111F0E10F1EBF416C41F4D3
:100C60000041416440F2FF71C4F20001884212DD8C
:100C700040F60001C4F20001884215D044F20001A0
:100C8000C4F2010188420FD042F60041C4F20101D2
:100C9000884209D00DE0B0F1804F05D040F200410C
:100CA000C4F20001884204D1816801F007010629DD
:100CB00003D0016841F0010101600220A8F80000A2
:100CC00002B0BDE8F08700002DE9F04182B040F2AB
:100CD0001841C2F20001884240F0F280406A40F2BE
:100CE0007C58C2F20008404540F0EA8040F22A25D4
:100CF000C2F200052888002800F0E280D8F824001D
:100D0000884215D0D8F8280088421AD0D8F82C008C
:100D100088421FD0D8F83000884223D18869082142
:100D2000002888F81C1004BF012088F8410019E051
:100D300089690120002988F81C0008BF88F83E0056
:100D400010E08869022188F81C1058B9012088F841
:100D50003F0007E08869042188F81C1010B90120C1
:100D600088F8400028881F2858D800208DF80700F0
:100D70009DF8070007285CD840F2F42040F2ED21EE
:100D800040F2EC2740F22C23C2F20000C2F2000134
:100D9000C2F20007C2F200032C883A4604EB440476
:100DA000045D9DF8076004FA06F6360658BF0A4649
:100DB00012789DF8076003EB860632662A8802EBFC
:100DC0004202024452789DF80760B24012063A4649
:100DD00058BF0A4612789DF8076003EB8606C6F8EE
:100DE00080202A8802EB4202024492789DF8076034
:100DF000B24012063A4658BF0A4612789DF807607C
:100E000003EB8606C6F8A0209DF8072001328DF876
:100E100007209DF80720082ABED30AE02888212849
:100E20000BD840F22C20C2F2000060306021FFF7A6
:100E300040FB2888013028803FE000202880D8F837
:100E40000010D8F82800CA6822F48062CA6000F056
:100E500003FCD8F80000A0F18041A1F596314FEADB
:100E6000B121072913D8012202FA01F111F0E10F93
:100E70000DD0016A41F21112114208D1016A40F20B
:100E80004442114203D1416C21F400414164016AA2
:100E900041F21112114208D1016A40F2444211425A
:100EA00003D1016821F00101016040F228210120F5
:100EB000C2F2000188F83F000870002088F81C008A
:100EC00002B0BDE8F0810000F0B581B040F21841F9
:100ED000C2F20001884273D1406A40F27C51C2F2F2
:100EE000000188426CD140F22A27C2F200073888FC
:100EF000002865D038881F2855D800208DF80300B9
:100F00009DF80300072858D840F2F42040F2ED2164
:100F100040F2EC2640F22C23C2F20000C2F20001A3
:100F2000C2F20006C2F200033C88324604EB4404DD
:100F3000045D9DF8035004FA05F52D0658BF0A46D6
:100F400012789DF8035043F825203A8802EB4202BC
:100F5000024452789DF80350AA401206324658BF08
:100F60000A4612789DF8035003EB85052A623A88F9
:100F700002EB4202024492789DF80350AA40120606
:100F8000324658BF0A4612789DF8035003EB850598
:100F90002A649DF8032001328DF803209DF8032078
:100FA000082AC1D309E03888212809D840F22C202A
:100FB000C2F200006021FFF77CFA388801303880E7
:100FC00001B0F0BD40F2E46040F20811C2F200004E
:100FD000C2F2000104224FF6FF7302F007BA0000CC
:100FE0002DE9F04182B00446007800218DF8071009
:100FF000D0B140F2080840F2E4650027C2F20008D0
:10100000C2F200050DF1070618F8000031468DF810
:101010000700284601224FF6FF7302F0E7F9013777
:10102000F8B2205C0028EFD102B0BDE8F0810000EA
:1010300040F26231884240F20C1140F2E4604FF01D
:10104000010CC2F20001C2F200004FF003024FF6A1
:10105000FF7308BF4FF0350C81F802C002F0C6B92B
:10106000B0B582B045F640050C463121C0F600050A
:10107000ADF80610ADF80410421C0DF1060029462B
:10108000FFF7CAF8621C01A82946FFF7C5F89DF8CA
:10109000060040F2B811C2F200019DF80450087138
:1010A00040F2E460C2F2000006224FF6FF738D703A
:1010B00002B0BDE8B04002F099B90000FEE70000C0
:1010C00040F21840C2F2000000F018BB7047000068
:1010D000EFF3108072B600BFFEE70000B0B581B03C
:1010E0000022009290F82420012A01D1022179E007
:1010F0004A680123062A02EB820C80F8243005D8C6
:10110000026802F1340E6FF004020AE003680C2A50
:1011100087BF03F12C0E6FF0400203F1300E6FF029
:1011200022026244DEF800C01F230C6893402CEAC0
:10113000030304FA02F21A43CEF80020D1F800E0CB
:1011400002680EEB4E041023BEF1090F88BF1E3C4F
:1011500088BF0C2352F803C007258968A5402CEAF4
:101160000505A1402943D1502EF001014FF0000C9C
:1011700010294FF0000133D1016842F20042C4F25D
:101180000102914205D0816A41F020018162012172
:1011900026E09268120222D48A68BEF1100F42F44F
:1011A00000028A601BD140F20401C2F2000109680A
:1011B0004DF68362C4F21B32A1FB0212910C01EBCB
:1011C000810149000091009949B100BF009901399E
:1011D0000091009900294FF00001F7D100E00021B3
:1011E00080F824C0084601B0B0BD00000068C06CA3
:1011F00070470000B0B5002846D00446806A30B978
:101200000020E06284F82400204600F0A1F8206865
:101210008168C90709D0816821F00101816000F06F
:10122000C7FC21688968C90730D100200121A36A61
:10123000A26A31B313F0100123D141F2021122EA64
:1012400001010231A162E169D4E9013241EA030CF2
:10125000531EB3FA83F35D091346B2F5807F18BFBE
:101260002B02217D257B01294CEA450E31D13DB36E
:10127000A56A45F02005A562E56A45F00105E5622D
:1012800027E042F01000A0620120B0BD054603E057
:1012900020688068C007C8D000F08AFC401B032883
:1012A000F6D320688068C007F2D0A06A002140F021
:1012B0001000A062E06A40F00100E0620120B6E7A1
:1012C000D4F818C04EF60005CFF6FF7505EB4C3587
:1012D0002B432568B2F5807F696821F4694141EAB2
:1012E00003016960A9684FF2FD73CFF6E17301EA6B
:1012F000030141EA0E01A96001D0012A06D121694A
:101300000022CFF6F07202EB015200E00022E96AFF
:1013100021F470011143E962A96840F6FE62CFF63C
:101320001F721140714507D10021E162A16A0122BB
:1013300062F30101A162B0BDA06A40F0100020F08C
:101340000200A062E06A40F00100E0620120B0BD4E
:1013500080B586B0014640F60000C4F2010009687D
:1013600000F5E05291424FF00001CDE90411CDE9C2
:10137000021101D006B080BD41F21801C4F2020191
:101380000A6842F400720A600A6802F4007201926C
:10139000019A0A6842F004020A60096801F0040137
:1013A00001910199062102910321039102A900F004
:1013B000F7FA06B080BD00002DE9F04182B00026AA
:1013C0000D460446019600F0F3FB21688A68D205B9
:1013D0003CD480464868C00503D4C86A10F4700F36
:1013E0003ED040F20400C2F200000668022000F085
:1013F00095FC216844F624130A69B6FBF0F0C2F2AA
:1014000092431A4206D1CA6844F62413C0F29203EA
:101410001A423ED00A6942F29243C1F249231A426B
:1014200006D1CA6842F29243C0F249031A4242D03E
:101430000A6949F24923C0F224031A424FF0FC0220
:101440003AD1C968194208BF542235E0A06A40F079
:101450002000A06284F82460012002B0BDE8F08181
:1014600020680068800743D46E1C07E0206800688D
:1014700080075CD520680068800739D4002EF9D039
:10148000002DF3D000F094FBA0EB0800A842EDD8AB
:10149000F0E70A6942F29243C1F249231A424FF03F
:1014A000290209D1C96842F29243C0F249031942A4
:1014B00008BF142200E05422019902FB00F7B94250
:1014C00016D26E1C09E000BF0198B8422FD30198D4
:1014D000013001900198B8420AD2002EF7D0002DB9
:1014E000F2D000F065FBA0EB0800A842ECD8EEE7D4
:1014F00020686FF012010160A16A41F40071A162DD
:10150000806800F46020B0F5602F0CD1207B50B9CA
:10151000A06A20F48070A062A06AC00403D4A06A0C
:1015200040F00100A062002002B0BDE8F081A06A96
:1015300040F00400A062002084F82400032002B0E0
:10154000BDE8F08110B5044690F82400012804BFDE
:10155000022010BD012084F824002046FFF7B8F9CE
:1015600018B1002184F8241010BD2168A26A40F24D
:1015700001339A4302F58072A262A26A22F48012B9
:10158000A2624A68520504D5A26A012363F30D32B0
:10159000A262A36A0022DB044FF0000344BFE36AA7
:1015A00023F00603E36284F824206FF002020A604D
:1015B0008A6802F460238A68B3F5602F0CBF42F496
:1015C000A00242F480128A6010BD0000B0B504464B
:1015D00090F82400012804BF0220B0BD012120683A
:1015E00084F824108268D20702D1002099B10CE05F
:1015F000816821F00101816000F0DAFA21688968D0
:10160000C9070CD10020012129B1A16A41F20112C0
:1016100091430131A162002184F82410B0BD054638
:1016200004E000BF20688068C007EBD000F0C0FA7B
:10163000401B0328F6D320688068C007F2D0A06A58
:10164000002140F01000A062E06A40F00100E0627A
:1016500001200029DFD0D8E780B590F821100229B9
:1016600023D10268116821F00E0111602F21136847
:10167000C4F202018A4240F20401C4F2020123F0E2
:101680000103136015DD3023C4F202039A421CD01B
:101690004423C4F202039A421AD05823C4F202032C
:1016A0009A421AD14FF480331FE004218163012054
:1016B00080BD0823C4F202039A420CD01C23C4F25A
:1016C00002039A4209D110230FE04FF480730CE01B
:1016D0004FF4805309E0012307E001F1680C4FF05B
:1016E0008073624508BF4FF480130B60416B4FF469
:1016F0008072028401B18847002080BD10B5D0E916
:101700000FCE0168DCF800300A6823FA0EF35C079C
:1017100024D512F0040421D00A68920603D40A6882
:1017200022F004020A602F22C4F20202914240F227
:101730000402C4F2020251DD3023C4F202039942D2
:1017400064D04423C4F20203994262D05823C4F205
:101750000203994262D14FF4802367E09C0727D5AA
:1017600012F0020424D00A68920606D40A6822F015
:101770000A020A60012280F821202F22C4F202020C
:10178000914240F20402C4F2020233DD3023C4F27B
:101790000203994250D04423C4F2020399424ED02E
:1017A0005823C4F2020399424ED14FF4003353E060
:1017B0001B0758D512F0080208BF10BD0A6822F0B6
:1017C0000E020A60012101FA0EF2CCF804208163B6
:1017D000016B4FF48072028459BB44E00823C4F2C9
:1017E0000203994218D01C23C4F20203994215D176
:1017F00040231BE00823C4F20203994222D01C2399
:10180000C4F2020399421FD1202325E04FF48063E4
:101810000CE04FF4804309E0042307E002F1680480
:101820004FF08063A14208BF4FF480031360C16A88
:10183000C9B1BDE8104008474FF400730CE04FF405
:10184000005309E0022307E002F168044FF000733F
:10185000A14208BF4FF400131360816A00220029DF
:1018600080F82020E5D110BD002804BF012070477A
:101870002DE9F04101684FF6F872CBF6FD724CF697
:10188000CD430A44CCF6CC43A2FB03236FF00307FD
:1018900007EA93030027C4F2020700F1040E00F1E7
:1018A0001008C0E90F739EE8045098E870010B68B7
:1018B00043F6F077BB431A4342EA0C0242EA0E02B7
:1018C00022432A43324342EA08020A6000214FF4CD
:1018D000807281630284BDE8F041084670470000D1
:1018E000F0B590F820C0BCF1010F2FD090F821C0C6
:1018F0004FF0010EBCF1010F80F820E023D14FF032
:10190000020C80F821C04FF0000CC0F838C0D0E9BC
:1019100000C4C56AC66BDCF80070102C27F0010704
:10192000CCF80070006C0EFA00F070600846CCF83D
:10193000043004BF10460A46CCF80800CCF80C204E
:1019400035B10E200BE0002180F820100220F0BD00
:10195000DCF8000020F00400CCF800000A20DCF8DD
:1019600000100843CCF80000DCF8000040F0010053
:10197000CCF800000020F0BDB0B5044600F018F926
:10198000054640F2C210C2F200000078611C18BF88
:10199000044400BF00F00CF9401BA042FAD3B0BDD4
:1019A0002DE9F04F82B00E68002E00F0F88040F272
:1019B0000C4C40F2004E41F20042C4F2010CC4F261
:1019C000010EC4F201020427002401234FF0000A93
:1019D0004FF00009904208BF0327009741E001271C
:1019E00004F00C030F229A402BEA020207FA03F3D9
:1019F0004FEA9A051A4346F825204E68F203DEF8AE
:101A0000002054BF22EA080242EA0802CEF8002071
:101A1000DEF80420B30354BF22EA080242EA0802B7
:101A2000CEF80420F302DEF8082054BF22EA0802B0
:101A300042EA0802B302CEF80820DCF800204FF09A
:101A4000010354BF22EA080242EA0802CCF800204F
:101A50000E680AF1010A36FA0AF204F1040400F0F1
:101A60009E8003FA0AFB16EA0B08F1D04E684FF687
:101A7000FF72C1F21002964210DC122E50D8DFE83D
:101A800006F0330A41454F4F4F4F4F4F4F4F4F4F87
:101A90004F4F4F484C00D1F80C9041E04FF6FF7289
:101AA000C1F2210296420FDC0022C1F211029642DD
:101AB0001AD00022C1F21202964215D00022C1F2C1
:101AC0002102964210D02BE00022C1F2220296425F
:101AD0000AD00022C1F23102964205D00022C1F2A2
:101AE000320296421CD100BF8A6842B1012A14BF5B
:101AF000C0F814B0C0F810B04FF0080910E04FF073
:101B000004090DE0CA6802F1080909E04FF0000974
:101B100006E0CA6802F1040902E0CA6802F10C0991
:101B200022460646B8F5807F24BF203A043637683F
:101B30000F25954027EA050509FA02F22A4332608B
:101B4000CA79D2067FF584AF41F21803C4F20203CA
:101B50001A68AEF57E7642F001021A601A6802F049
:101B600001020192019A2AF0030256F802B040F6EF
:101B70000002C4F2010290420FD040F60042C4F2CB
:101B8000010290423FF42BAF41F20002C4F2010285
:101B9000009F904208BF022722E7002720E702B0FB
:101BA000BDE8F08F002A08BF0904016170470000FA
:101BB00040F25070C2F200000068704740F2C2105C
:101BC00040F25071C2F20000C2F2000100780A68CF
:101BD000104408607047000080B5032000F08EF8C4
:101BE000002000F005F800F02BF8002080BD000078
:101BF000B0B540F2C212C2F2000240F20401127803
:101C0000C2F200014FF47A730968B3FBF2F20446A2
:101C1000B1FBF2F1084600F099FB0F2C4FF00105E3
:101C20000CD858B94FF0FF3021460022002500F0B3
:101C300039F840F2C410C2F2000004602846B0BD7A
:101C400082B041F21800C4F202000168022241F0A1
:101C500001010160016801F00101019101994168F0
:101C600041F080514160406800F080500090009841
:101C70000420C4F20100016862F31A61016002B03D
:101C800070470000002848BF704700F01F01012284
:101C900002FA01F14EF200124009CEF2000242F8BF
:101CA0002010704710B54EF60C5CCEF2000CDCF83C
:101CB0000030C3F3022E8EF00704042C28BF042446
:101CC000BEF103034FF0FF3E0EFA04F438BF0023C9
:101CD000A14399400EFA03F39A43114300F1604285
:101CE00000F00F03090102F56442043B634400283D
:101CF00048BF03F10C02117010BD00004EF60C51EC
:101D0000CEF200010A684FF6FF031A4060F30A2280
:101D100042F0806040F0FD700860704780B5022896
:101D20002BD0012827D141F20000C4F20200016A41
:101D300040F202320A40B2F5817F04BF4FF4004006
:101D400080BD01F44071B1F5407F0DD0B1F5007F49
:101D500011D1426A920744BF49F6404080BDB1F5B7
:101D6000407F1CBF002080BD00684FF224418003EB
:101D700001EAE07080BD002080BD00F03BF941F237
:101D80000001C4F2020149680222C1F3813102EB71
:101D90004101B0FBF1F080BD2DE9F04182B0044675
:101DA0000078C0074ED041F21C06C4F2020630682B
:101DB00010F0805808D1306840F0805030603068B2
:101DC00000F080500190019847F20007C4F200072C
:101DD0003868C00512D4386840F480703860FFF766
:101DE000E7FE05463868C00508D4FFF7E1FE401B52
:101DF0006428F7D9032002B0BDE8F081706810F4C0
:101E0000407012D0616801F4407188420DD0706852
:101E100040F24042C4F24222012320F44071136098
:101E20000023C0071360716023D17068616820F4DB
:101E300040700843B8F1000F706003D1306820F0A3
:101E4000805030602078800703D4002002B0BDE8C5
:101E5000F08141F21C00C4F2020050F8181CA26884
:101E600021F44041114340F8181C002002B0BDE8A5
:101E7000F081FFF79DFE054641F2883770688007C4
:101E8000D3D4FFF795FE401BB8424FF00300F5D9BD
:101E9000ECE70000F0B581B000284ED004460068A1
:101EA00041F204068107C4F2020611D5410703D5A9
:101EB000316841F4E0613160010703D5316841F4D4
:101EC000605131603168A26821F0F0011143316046
:101ED000C00729D12068410705D53168E26821F49F
:101EE000E06111433160000706D53068216920F4B4
:101EF000605040EAC1003060326802F00C000828EF
:101F000041F20020C0F27A0025D145F2FD73C2F300
:101F10008341C0F60003595CD20311D440F600108F
:101F2000C0F23D00484316E0606802282CD001282A
:101F300047D156F8041C89032AD4012001B0F0BD12
:101F4000B26A45F60D0302F00F02C0F600039A5C78
:101F50004843B0FBF2F0316845F2E572C1F303117A
:101F6000C0F60002515C40F2040220FA01F140F296
:101F7000C410C2F200000068C2F200021160FFF754
:101F800037FE002001B0F0BD56F8041C8901D4D5FD
:101F9000316821F0030108433060FFF709FE054670
:101FA00041F288373068616800F00C00B0EB810FB7
:101FB00090D0FFF7FDFD401BB842F3D9032001B0DC
:101FC000F0BD56F8041C8907B7D5E1E740F20400DC
:101FD00041F20401C2F20000C4F202010068096883
:101FE00045F2F572C1F30221C0F60002515CC8400F
:101FF0007047000040F2040041F20401C2F2000008
:10200000C4F202010068096845F2F572C1F3C22109
:10201000C0F60002515CC840704700002DE9F04155
:1020200082B0002800F0D7800446007841F2000614
:10203000C007C4F2020644D0706800F00C00042807
:1020400017D0706800F00C00082802D17068C00337
:102050000FD465682DB1B5F5A02F10D0B5F5803F30
:1020600011D0306820F480303060306820F4802057
:102070000CE03068800324D5606810BBABE03068AA
:1020800040F480203060306840F480303060FFF7EA
:102090008FFD002D054611D03068800311D4FFF765
:1020A00087FD401B6428F7D916E100BFFFF780FDCC
:1020B000401B64284FF0030000F28A8030688003E0
:1020C000F4D42078800718D5706810F00C0F07D072
:1020D000706800F00C00082827D17068C00324D471
:1020E0003068800702D52069012874D130686169A1
:1020F00020F0F80040EAC1003060207800074FD59A
:10210000A06940B30020C4F242200121C0F880142D
:10211000FFF74EFD054600BF706A80072DD4FFF71C
:1021200047FD401B0228F7D9D6E02069002840F27D
:102130000000C4F2422000F0A68001210160FFF7F8
:1021400037FD054630688007D0D4FFF731FD401BCE
:102150000228F7D9C0E00020C4F242200021C0F8D4
:102160008014FFF725FD0546706A800718D5FFF734
:102170001FFD401B0228F7D9AEE040F20400C2F276
:102180000000006844F6D351C1F26201A0FB0101D6
:10219000480A019000BF0198411E00280191F9D121
:1021A000207840071BD4E5698DB1706800F00C0001
:1021B000082846D1012D0ED07068216A00F48032C3
:1021C0008A4208D1616A00F47010884203D100206D
:1021D00002B0BDE8F081012002B0BDE8F081F069F5
:1021E00010F0805808D1F06940F08050F061F0693B
:1021F00000F080500090009847F20007C4F20007FA
:102200003868C0050FD4386840F480703860FFF734
:10221000CFFC05463868C00505D4FFF7C9FC401B54
:102220006428F7D958E0E5681DB1052D3CD0012D93
:102230003ED0306A20F001003062306A20F00400A5
:1022400039E00027C4F2422700203866FFF7B0FCCF
:10225000022D05460CD100BF3068800154D5FFF730
:10226000A7FC401B02284FF00300F5D9B0E700BFE0
:1022700030688001ABD5FFF79BFC401B02284FF074
:102280000300F5D9A4E700210160FFF791FC0546A2
:10229000306880077FF531AFFFF78AFC401B0228CA
:1022A0004FF00300F4D993E7306A40F00400306245
:1022B000306A40F001003062FFF77AFC002D0546DD
:1022C00041F2883714D000BF306A800713D4FFF77B
:1022D0006FFC401BB842F7D9032002B0BDE8F08183
:1022E000FFF766FC401BB8424FF003003FF670AFAB
:1022F000306A8007F4D4B8F1000F7FF454AFF0696E
:1023000020F08050F0614EE7206AB0F5803F05D1A3
:10231000F16AA26821F00F011143F1627168626AEB
:1023200021F4741111430843706001203866FFF7EF
:102330003FFC0446306880013FF549AFFFF738FCA9
:10234000001B02284FF00300F4D941E7411E002092
:10235000B0EB116F1CBF012070474EF21002CEF29D
:10236000000251604EF62351CEF20001F0230B70B3
:1023700007219060116070477047000070470000AF
:10238000B0B590F83C20012A04BF0220B0BD01F195
:1023900008053CCDD1E900CE23F47C5322F47052E1
:1023A0001A432EF4F0431A432CF4E0431A4324F466
:1023B000C0431A432A43C96922F480420368114387
:1023C0005964002180F83C100846B0BD10B590F863
:1023D0003C20012A4FF002023BD0012380F83C3020
:1023E00080F83D200268D2F804E0D2F808C00C68FA
:1023F0002EF07003234340F2FF74C4F20004A242A3
:10240000536012DD40F60003C4F200039A4215D077
:1024100044F20003C4F201039A420FD042F6004393
:10242000C4F201039A4209D00DE0B2F1804F05D009
:1024300040F20043C4F200039A4204D149682CF0F0
:102440008003194391600121002280F83D1080F83B
:102450003C20104610BD0000002804BF012070473A
:1024600010B5044690F83D0028B9002084F83C00DF
:10247000204600F01FF8022084F83D002068211D4E
:1024800001F0E6FE012084F8460084F83E0084F85E
:102490003F0084F8400084F8410084F8420084F84A
:1024A000430084F8440084F8450084F83D0000208F
:1024B00010BD000070B586B00446006841F2FF31DF
:1024C000C4F2000188424FF00001CDE90411CDE9CA
:1024D00002111EDC40F2FF71C4F20001884266DC8A
:1024E000B0F1804F00F0A78040F20041C4F200013B
:1024F00088420CD141F21C00C4F20200016841F094
:1025000002010160006800F002000190019806B02D
:1025100070BD44F2FF31C4F20101884267DC41F230
:102520000041C4F20001884200F0B18042F600414F
:10253000C4F201018842EAD141F21C00C4F2020057
:1025400050F8041C41F4006140F8041C50F8041CCD
:1025500001F400610191019950F8041C41F004015B
:1025600040F8041C50F8040C02A900F0040001908B
:1025700001984FF4805002900020CDE9030040F60E
:102580000000C4F20100FFF70BFA1920002100221D
:10259000FFF788FB1920FFF775FB1A2001210022A5
:1025A000FFF780FB1A20FFF76DFB06B070BD40F609
:1025B0000001C4F2000188427DD041F20001C4F262
:1025C00000018842A3D141F21C00C4F2020001685C
:1025D000002241F0100101600068012100F01000AC
:1025E000019001983620FFF75DFB36208DE044F224
:1025F0000041C4F20101884271D044F60001C4F2E6
:10260000010188427FF483AF41F21C00C4F2020052
:1026100050F8041C002241F4802140F8041C50F8BA
:10262000040C012100F48020019001981A20FFF78A
:1026300039FB1A2069E041F21C00C4F20200016873
:1026400040F2184541F0010101600068C2F2000546
:1026500000F00100019001988020C4F202001021D6
:10266000002280234FF4007C4FF4006E202685E882
:102670000F502846C5E90662FFF7F6F8002818BF94
:10268000FEF726FDA5626C62256306B070BD41F2BF
:102690001C00C4F202000168002241F02001016028
:1026A0000068012100F02000019001983720FFF719
:1026B000F9FA372029E041F21C00C4F20200016857
:1026C000002241F0040101600068002100F00400D4
:1026D000019001981E20FFF7E5FA1E2015E041F257
:1026E0001C00C4F2020050F8041C002241F4003126
:1026F00040F8041C50F8040C002100F40030019054
:1027000001981920FFF7CEFA192006B0BDE87040F5
:10271000FFF7B8BA90F83D1001291CBF012070479F
:10272000022180F83D10006840F2FF71C4F2000100
:10273000884212DD40F60001C4F20001884215D043
:1027400044F20001C4F2010188420FD042F6004178
:10275000C4F20101884209D00FE0B0F1804F05D0EA
:1027600040F20041C4F20001884206D1816801F0C4
:102770000701062904BF00207047016841F00101EC
:10278000016000207047000090F83D1001291CBF37
:1027900001207047022180F83D10006840F2FF726E
:1027A000C168C4F20002904241F00101C16012DD33
:1027B00040F60001C4F20001884215D044F2000145
:1027C000C4F2010188420FD042F60041C4F2010177
:1027D000884209D00FE0B0F1804F05D040F20041AF
:1027E000C4F20001884206D1816801F00701062980
:1027F00004BF00207047016841F001010160002022
:10280000704700000146006841F21113026A1A4243
:1028100008D1026A40F244431A4203D1026822F00E
:10282000010202600122002081F83D207047000073
:102830000146006841F21113C26822F00102C26031
:10284000026A1A4208D1026A40F244431A4203D192
:10285000026822F0010202600122002081F83D207E
:102860007047000080B590F83C20012A4FF002022A
:1028700000F0C080012380F83C3080F83D20D0F883
:1028800000C04FF67772DCF8083023EA0202CCF879
:1028900008200B683F2B1CDD5F2B20DD602B4FD009
:1028A000B3F5005F6CD0702B40F09E80D1E901E35E
:1028B000C968DCF8082043EA0E0322F47F4243EAA9
:1028C00001211143CCF80810DCF8081041F0770121
:1028D00088E01F2B28DC5BB3102B29D084E0402B31
:1028E00061D0502B40F08080D1F804E0C968DCF85A
:1028F0002030DCF8202022F00102CCF82020DCF887
:10290000182022F0F00242EA011123F00A0242EA02
:102910000E02CCF81810CCF82020DCF8081041F09A
:10292000570121F020015DE0202B01D0302B5BD13D
:10293000DCF8081021F07001194341F0070151E063
:10294000D1F804E0C968DCF8203023F01003CCF89B
:102950002030DCF81830DCF8202023F4704322F01B
:10296000A00243EA013142EA0E12CCF81810CCF86A
:102970002020DCF8081041F0670121F0100131E05F
:10298000D1E901E3C968DCF8082043EA0E0322F428
:102990007F4243EA01211143CCF80810DCF808100B
:1029A00041F480411EE0D1F804E0C968DCF8203031
:1029B000DCF8202022F00102CCF82020DCF81820DE
:1029C00022F0F00242EA011123F00A0242EA0E026A
:1029D000CCF81810CCF82020DCF8081041F04701A2
:1029E00021F03001CCF808100121002280F83D10C0
:1029F00080F83C20104680BD704700007047000002
:102A000010B5044600680169890744BFC1685FEAE0
:102A100081713FD420680169490744BFC1685FEAFA
:102A2000417143D420680169090744BFC1685FEA66
:102A3000017148D420680169C90644BFC1685FEAD2
:102A4000C1614CD420680169C9071CBFC1685FEA35
:102A5000C17151D120680169090644BFC1685FEAAC
:102A6000016150D420680169490644BFC1685FEA2A
:102A700041614FD421680869800646BFC8685FEA93
:102A8000806010BD6FF0200220460A61BDE8104052
:102A9000FFF774BC6FF002010161012121778069A9
:102AA00080073ED02046FFF7A9FF40E06FF0040109
:102AB000016102212177806910F4407F3AD02046DD
:102AC000FFF79CFF3CE06FF00801016104212177D2
:102AD000C069800737D02046FFF790FF39E06FF0DC
:102AE0001001016108212177C06910F4407F33D0C3
:102AF0002046FFF783FF35E06FF0010101612046BA
:102B000000F0DAFBA6E76FF0800101612046FFF7D5
:102B100033FCA7E76FF040010161204600F0F4FBB1
:102B2000A8E7204600F0B2F8204600F023FA002083
:102B300020776FE7204600F0A9F8204600F01AFA47
:102B4000002020776EE7204600F0A0F8204600F035
:102B500011FA002020776DE7204600F097F8204614
:102B600000F008FA002020776CE7000080B586B0FE
:102B7000006844F20001C4F2010188424FF00001F4
:102B8000CDE90411CDE9021131D040F20041C4F287
:102B9000000188424ED0B0F1804F49D141F2180077
:102BA000C4F20200016841F008010160006802A956
:102BB00000F0080001900198082002900220039084
:102BC000059040F60040C4F20100FEF7E9FE042043
:102BD000C4F201004FF2FF320168CFF6FF0202F5A6
:102BE0001062114041F0E06141F480714AE041F22D
:102BF0001800C4F20200016841F008010160006899
:102C000002A900F00800019001984FF48040029062
:102C100002200390059040F60040C4F20100FEF748
:102C2000BFFE0420C4F20100816941F0010181610D
:102C300006B080BD41F21800C4F20200016841F004
:102C400008010160006802A900F0080001900198E5
:102C50001020029002200390059040F60040C4F23C
:102C60000100FEF79DFE0420C4F2010001684FF24E
:102C7000FF32CFF6FF02114001F1E06101F58071F2
:102C800001F5E061016006B080BD00007047000002
:102C90002DE9F04190F83C30012B04BF0220BDE843
:102CA000F0814FEAB2020123032A80F83C3000F29F
:102CB0001381DFE802F002478FD703681A6AA3F195
:102CC000804622F001021A621D6A1A465C6852F8B8
:102CD00018CF8F68A6F59636D1F800E025F00205EA
:102CE0004FEAB626072E45EA07050AD80127B7405E
:102CF00017F0E10F1FBFCF6825F00C0527F0040780
:102D00003D43072E0BD8012707FA06F616F0E10F10
:102D10001FBF24F44074D1E9056734433C432CF0D1
:102D2000730747EA0E075C609F614F6809695F633C
:102D30001D629F6947F008079F619F6927F004079C
:102D40009F61C6E0036842F600461A6AC4F20106B3
:102D500022F010021A621F6A1A465D6852F818CFF4
:102D6000B3428E6827F0200747EA061408D1CE68E0
:102D700024F0C0076FF0400404EA061646EA070490
:102D8000A3F18046A6F59636D1F800E04FEAB626C4
:102D9000072E0CD8012707FA06F616F0E10F1FBF21
:102DA000D1E9056725F440653E4345EA86052CF4E4
:102DB000E64747EA0E275D609F614F6809699F6398
:102DC0001C629F6947F400679F619F6927F48067D1
:102DD0009F617DE0036842F600461A6AC4F201066C
:102DE00022F480721A621F6A1A465C6852F81CCF7D
:102DF000B3428E6827F4007747EA062508D1CF68EA
:102E000025F440663F0240F2FF45AF4347EA06051E
:102E1000A3F18046A6F59636D1F800E04FEAB62633
:102E2000072E0CD8012707FA06F616F0E10F1FBF90
:102E3000D1E9056724F440543E4344EA06142CF0DB
:102E4000730747EA0E075C60DF614F680969DF635B
:102E50001D62DF6947F00807DF61DF6927F00407BB
:102E6000DF6136E003681A6AA3F1804722F48052DA
:102E70001A621A46A7F59637D3F820C05D6852F853
:102E80001C8FD1F800E08E684FEAB727072F09D8CA
:102E90000124BC4014F0E10F1EBF4C6925F48045AD
:102EA00045EA84152CF4005747EA063728F4E6462D
:102EB00046EA0E265D60DE614E6809691E641F6287
:102EC000DF6947F40067DF61DF6927F48067DF614E
:102ED0000902136819431160002180F83C1008466C
:102EE000BDE8F081002804BF0120704710B50446FA
:102EF00090F83D0028B9002084F83C00204600F0FE
:102F00001FF8022084F83D002068211D01F0A0F97F
:102F1000012084F8460084F83E0084F83F0084F8DD
:102F2000400084F8410084F8420084F8430084F8AB
:102F3000440084F8450084F83D00002010BD0000E6
:102F400081B0006844F20001C4F20101884201D05E
:102F500001B0704741F21800C4F20200016841F468
:102F600080310160006800F480300090009801B06A
:102F7000704700007047000041B1082909D00429BA
:102F800014BF00F1410200F13F0204E000F13E02F3
:102F900001E000F140021278012A1CBF01207047B5
:102FA000022241B1082909D0042914BF80F8412028
:102FB00080F83F2004E080F83E2001E080F84020C7
:102FC000006801F01F020121036A01FA02F2934333
:102FD0000362036A1343A0F18042A2F596324FEADE
:102FE000B222072A036207D8914011F0E10F1EBFF9
:102FF000416C41F40041416440F2FF71C4F20001B0
:10300000884212DD40F60001C4F20001884215D06A
:1030100044F20001C4F2010188420FD042F600419F
:10302000C4F20101884209D00FE0B0F1804F05D011
:1030300040F20041C4F20001884206D1816801F0EB
:103040000701062904BF00207047016841F0010113
:10305000016000207047000041B1082909D004290F
:1030600014BF00F1410200F13F0204E000F13E0212
:1030700001E000F140021278012A1CBF01207047D4
:10308000022241B1082909D0042914BF80F8412047
:1030900080F83F2004E080F83E2001E080F84020E6
:1030A0004FEAB102032A0AD845F6200C0368C0F69D
:1030B000000C5CF822C0DA6842EA0C02DA600068B0
:1030C00001F01F020121036A01FA02F29343036235
:1030D000036A1343A0F18042A2F596324FEAB2226E
:1030E000072A036207D8914011F0E10F1EBF416C1F
:1030F00041F40041416440F2FF71C4F20001884292
:1031000012DD40F60001C4F20001884215D044F2FD
:103110000001C4F2010188420FD042F60041C4F21E
:103120000101884209D00FE0B0F1804F05D040F294
:103130000041C4F20001884206D1816801F0070114
:10314000062904BF00207047016841F001010160B9
:103150000020704710B5026801F01F0E4FF0010CFF
:10316000146A0CFA0EF324EA03031362A2F18043FB
:10317000A3F59633146A4FEAB323072B146212D8CF
:103180000CFA03F313F0E10F0DD0136A41F211149E
:10319000234208D1136A40F24444234203D1536CC2
:1031A00023F400435364136A41F21114234204D1FF
:1031B000136A40F24444234212D0082916D004294D
:1031C00009D000294FF0010114BF80F8411080F8A8
:1031D0003E10002010BD012180F83F10002010BDDE
:1031E000136823F0010313600829E8D1012180F856
:1031F0004010002010BD000010B54FEAB102032AB4
:103200000AD845F6300C0368C0F6000C5CF822C002
:10321000DA6802EA0C02DA60026801F01F0E4FF071
:10322000010C146A0CFA0EF324EA03031362A2F1F0
:103230008043A3F59633146A4FEAB323072B146235
:1032400012D80CFA03F313F0E10F0DD0136A41F218
:103250001114234208D1136A40F24444234203D19B
:10326000536C23F400435364136A41F21114234254
:1032700004D1136A40F24444234212D0082916D0E4
:10328000042909D000294FF0010114BF80F8411032
:1032900080F83E10002010BD012180F83F10002072
:1032A00010BD136823F0010313600829E8D1012140
:1032B00080F84010002010BD70470000B0B50446F3
:1032C00090F83C0001284FF0020008BFB0BD012576
:1032D00084F83C5084F83D00204601F06BF800284B
:1032E0004FF0010009D12068C16821F04001C160A0
:1032F000C16821F48041C1600020002184F83D5064
:1033000084F83C10B0BD000070470000002804BFE6
:103310000120704710B5044690F83D0028B9002000
:1033200084F83C00204600F021F8242084F83D0079
:103330002068C16821F40051C160204601F09CF86A
:103340002068016921F490410161416921F02A015D
:103350004161C16841F40051C16000202021206416
:1033600084F83D1084F83E1010BD000070B586B0A2
:1033700040F60004C4F20104006804F54051002640
:1033800088420596CDE90366029601D006B070BD6D
:1033900041F21800C4F20200016802AD41F480411C
:1033A0000160016801F4804101910199016841F0D7
:1033B000040101600068294600F0040001900198B2
:1033C0004FF40070029002200390032005902046E5
:1033D000FEF7E6FA4FF48060CDE902062046294662
:1033E0000496FEF7DDFA06B070BD00002DE9F0434B
:1033F00081B0044690F83D0020280DD10D460029EB
:103400004FF0010000F086801646002A00F082800E
:1034100094F83C00012803D1022001B0BDE8F083FC
:10342000012084F83C00002020642120984684F884
:103430003D00FEF7BDFBA684E684A1688146B1F598
:10344000805F01D1206910B12F46002500E00027E0
:10345000002084F83C00E08C58B308F1010609E034
:1034600097B117F8010B21684860E08C0138E084BF
:10347000E08CF0B1206800680006F1D4BEB1B8F16C
:10348000000F0ED120E000BF35F8020B21686FF36A
:103490005F2048600027E8E701680906E0D4002EB5
:1034A000FAD0FEF785FBA0EB090040450CD8206858
:1034B000F2E720680068400628D4B8F1000F03D076
:1034C00018F1010515D01AE02068C16821F4D07107
:1034D000C160416921F001014161202084F83D0073
:1034E00084F83E00002084F83C00032001B0BDE8D1
:1034F000F08320680168490608D4002DFAD0FEF751
:1035000057FBA0EB09004045F3D9DDE7202084F804
:103510003D00002001B0BDE8F083000070B54FF61B
:10352000E85001F041F84FF6E85001F03DF8B520C1
:1035300001F03AF840F61404C4F201040425C22054
:10354000256001F031F841F21400C4F2010080213D
:1035500001604021016020210160102101600826E6
:1035600002210660056001600120C4F8FC073820D4
:1035700001F01AF82A2044F8046C01F015F8142020
:10358000266001F011F84FF6E85001F00DF84FF603
:10359000E850BDE8704001F007B800002DE9F041A7
:1035A000044646B241F2140741F21005B520C4F2B8
:1035B0000107C4F2010500F0F7FF4FF60408CFF64B
:1035C000FF78042045F80800C22000F0EDFF8020BD
:1035D000B6F1FF3FCCBF3860286060064FF0400076
:1035E00054BF38602860A0064FF0200054BF3860F8
:1035F0002860E0064FF0100054BF386028602007B4
:103600004FF0080054BF3860286060074FF0040096
:1036100054BF38602860A0074FF0020054BF3860E4
:103620002860E0074FF001000CBF386028603820A8
:1036300000F0BAFF4FF60000CFF6FF7008242C50C0
:103640002A2000F0B1FF45F80840BDE8F0810000F5
:103650002DE9F04381B0044646B241F2140941F22B
:1036600010050420C4F20109C4F20105042700F08A
:103670009BFF4FF60008CFF6FF78022045F8087050
:1036800000F092FF8020B6F1FF3FCCBFC9F80000E8
:10369000286060064FF0400054BFC9F80000286061
:1036A000A0064FF0200054BFC9F800002860E006D3
:1036B0004FF0100054BFC9F80000286020074FF0F9
:1036C000080054BFC9F80000286060074FF00400EC
:1036D00054BFC9F800002860A0074FF0020054BF93
:1036E000C9F800002860E0074FF001000CBFC9F8DE
:1036F00000002860022000F057FF0824022045F84F
:10370000084000F051FF4FF60400CFF6FF702C5038
:1037100001B0BDE8F0830000B0B504460078002891
:1037200008BFB0BD002500BFC0B2FFF791FF013553
:10373000E8B2205C0028F7D1B0BD0000032988BFA3
:103740007047DFE801F007020406403002E0143061
:1037500000E0543040F08000C0B2FFF71FBF00000F
:10376000FEE700002DE9F04FB1F8018098FAA8F3C8
:10377000B3FA83F338FA03F74FD040F2011C4FF04D
:10378000011E4FF00F0A4FF0040903E0013338FA2D
:1037900003F242D028FA03F5ED07F7D0B3F108059C
:1037A0000EFA05F545F080664D6838BF0CFA03F651
:1037B000082D0DD1370AD1F810B0C46897FAA7F7D1
:1037C000B7FA87F724EA16240BFA07F73C43C460DC
:1037D000370E96FAA6F6B6FA86F63C58B6000AFAFE
:1037E00006F224EA020205FA06F442EA04053D5014
:1037F0004A6842F00802092AC8D18A680324B44002
:1038000025EA0404B2402243C251CC6809FA06F505
:10381000AA43B4402243C251B8E70020BDE8F08F6C
:10382000FEE70000FEE70000704700007047000060
:10383000FEF7C4B970B592B008AC20462821FCF759
:1038400038FE0120002508904FF480300226CDE993
:103850000905CDE90F604FF4802011902046CDE995
:103860000655CDE90455CDE90255CDE90055FEF7E1
:10387000D5FB20B1EFF3108072B600BFFEE70F203A
:10388000CDE9030603A80021CDE905550795FEF70C
:1038900001FB20B1EFF3108072B600BFFEE70220FB
:1038A0000090002002906846FEF776FA18B1EFF318
:1038B000108072B6FEE712B070BD000070470000C5
:1038C00070470000B0B584B00120CDE901000320AD
:1038D000039040F2E830C2F2000001A9FDF7FEFBC0
:1038E000002818BFFDF7F4FB40F2E834C2F20004F0
:1038F0002046FDF727FE20460A21FDF75DFD204604
:10390000FDF764FE2046FDF771FC40F2FF31A1EBAC
:10391000900040F2307400EB8001C2F200044A00D3
:1039200081B2208090B20A4600F01AFE228840F24E
:10393000B130C2F2000023A1FCF76EFC2188B1F582
:10394000C87F05D9C1EB011080B20A4600F008FE1D
:103950002188B1F52F7F06D901EB8100800080B26C
:103960000A4600F0FDFD208840F23274B0F57A7FFF
:10397000C2F2000408D340F2C450C2F20000002199
:10398000FFF7E8FB01250DE040F2CA3188420AD872
:10399000207840B140F2C450C2F20000002100255E
:1039A000FFF7EAFA257040F25C40C2F20000FFF730
:1039B00027F840F23450C2F20000FFF721F804B0BB
:1039C000B0BD00BF25303464000000002DE9F04197
:1039D00040F2A44041F20004C2F200000021C4F20F
:1039E0000104FFF7B7FB20464FF400710022FEF7F9
:1039F000D9F840F2C630C2F200000178002973D035
:103A000040F20F16C2F20006307800286ED0002572
:103A10004FF47A7000F0C8FD312D05F10105F7D3A0
:103A200040F24978C2F20008002720464FF4807126
:103A3000012288F80070FEF7B5F8A4F580652846E5
:103A40004FF480710122FEF7ADF800BF4FF47A7099
:103A500000F0AAFD182F07F10107F7D328464FF40D
:103A6000807100220025FEF79DF820464FF48071FA
:103A70000022FEF797F840F2C830C2F20000018839
:103A800040F25534013101808AB2C2F2000445F699
:103A90004801C0F600012046FCF7BEFB40F25C374F
:103AA000C2F2000707F11C0021460522FCF728FDA1
:103AB000992087F822003C2087F8240087F854508A
:103AC0004FF47A7000F070FDB5F5957F05F10105B2
:103AD000F6D940F20C600024C2F2000088F80040E1
:103AE000FEF752FE347001E00121017001F02AFA64
:103AF00040F25C40C2F20000FEF782FF40F2EC4070
:103B0000C2F20000BDE8F041FEF77ABF10B540F206
:103B10000C64C2F200042046FEF772FF40F20F115F
:103B2000C2F20001012220460A70BDE81040FEF7F3
:103B30007FBE000070B501F005FA40F20F10C2F22E
:103B400000000078002863D001F0B8F940F2497411
:103B5000C2F20004207880BB40F22970C2F200005B
:103B6000007850B340F22E7040F25C36C2F2000092
:103B70000025C2F200060570202006F1150486F823
:103B8000220086F8240006F13F002146FCF765FC80
:103B900040F24F11C2F200012046FCF75EFC40F2F9
:103BA0005464C2F20004204686F85450FEF728FF01
:103BB0002046BDE87040FEF73BBE00254FF47A700A
:103BC00000F0F2FC632D05F10105F7D301F076F961
:103BD00040F2C030C2F200000078C8B941F20000E3
:103BE000C4F201004FF4007101220125FDF7DAFF54
:103BF00040F25C30C2F20000982180F822102021AF
:103C000080F824100021257080F8541001F03AF952
:103C100040F25460C2F20000BDE87040FEF7F0BE12
:103C20002DE9F04782B040F2C439C2F2000999F898
:103C30000000002818BF01F041F940F60044C4F22A
:103C40000104A068800500F18A80A06840F2E03796
:103C50008006C2F2000700F180803888B0F52F7F1F
:103C600078D920464FF4807100220026FDF79AFF94
:103C700020464FF400710022FDF794FF204680217A
:103C800001224FF0010AFDF78DFF2046402101225D
:103C9000FDF788FF40F2C830C2F2000040F25C3508
:103CA000028845F648010DF10208C2F20005C0F68F
:103CB0000001404685F85460FCF7AEFA40F2251149
:103CC000C2F200012846FCF7C8FB05F1150640F2D8
:103CD000CA31C2F200013046FCF7BFFB05F11C00FF
:103CE00041460522FCF70CFC95F8540078B90020F9
:103CF0000021FDF7B5F92846FDF772F900200121F2
:103D0000FDF7AEF93046FDF76BF985F854A040F2A7
:103D10000C60C2F20000FEF775FD40F25460C2F282
:103D20000000FEF76FFD40F29C60C2F20000FEF75B
:103D300069FD40F25C40C2F20000FEF779FD40F2FE
:103D4000A445C2F200052846FEF772FD2846002170
:103D5000FFF700FA3888013000E00020388001F0D9
:103D6000F1F840F25430C2F200000178032904BF98
:103D70000021017040F23370C2F200000178052981
:103D800004BF0021017040F2C530C2F2000001788A
:103D9000052904BF0021017040F29C60C2F20000BE
:103DA000FEF72EFE99F8000040B399F8000040F2AB
:103DB0005C350028C2F2000540F08F8140F254705B
:103DC000C2F20000007840F2BE1C40F22E780028BB
:103DD000C2F2000CC2F2000800F010819CF8001042
:103DE000002900F0298198F80010002900F03281A4
:103DF0009422932193239327932622E14FF608419F
:103E0000CFF6FF7140F22E766258C2F2000630788B
:103E1000D20718BF002840F08A806158C907C4D073
:103E20000028C2D140F2DF35C2F20005287850B137
:103E300040F2EE22C2F20002107891781279FCF77B
:103E400091FD0020287020464FF4807100224FF031
:103E50000008FDF7A7FE20464FF400710022FDF791
:103E6000A1FE40F26230FDF7E3F840F25C37C2F2A7
:103E7000000707F1150540F2CA31C2F200012846D9
:103E800087F85480FCF7E9FAA12087F82100A020E8
:103E900087F82300962087F82500942087F82800CB
:103EA00040F2C630C2F2000080F8008040F2497053
:103EB000C2F20000012101704CF25030317000F06C
:103EC00073FB4CF2503000F06FFB40F25C40C2F2EA
:103ED000000040F67F41C160FEF7BEFA002818BF1F
:103EE000FDF7F6F840F22976C2F20006307820B1EC
:103EF00007F13F012846FCF7B0FA0020307040F28D
:103F00005C40C2F20000FEF73FFC40F2A445C2F262
:103F100000052846FEF738FC28460021FFF72CF85C
:103F200040F25460C2F20000FEF72EFC3DE720464E
:103F30004FF4807100220025FDF734FE20464FF437
:103F400000710022FDF72EFE20468021012201266D
:103F5000FDF728FE204640210122FDF723FE40F216
:103F60005C34C2F2000440F28E11C2F2000120461D
:103F700084F85450FCF771FA04F1150540F2A311CE
:103F8000C2F200012846FCF768FA94F8540078B9A8
:103F900000200021FDF764F82046FDF721F80020FD
:103FA0000121FDF75DF82846FDF71AF884F8546002
:103FB00040F20C60C2F20000FEF724FC40F25460B4
:103FC000C2F20000FEF71EFC40F29C60C2F200004C
:103FD000FEF718FC40F25C40C2F20000FEF728FC3D
:103FE00040F2A444C2F200042046FEF721FC204621
:103FF000002102B0BDE8F047FFF7ACB840F22871ED
:10400000C2F200010978032924D2CA0042F25B01FE
:1040100045F65D3345F6205742F22006C0F22001F6
:10402000C0F22003C0F25B07C0F25D06D140D3406E
:10403000D740D640952204E09422962196239627D5
:10404000962640F23470C2F200000170837107734B
:104050008674C2749CF8000040F22977C2F200070F
:1040600038B340F2C130C2F20000007808B398F8CB
:104070000000F0B9204680210022FDF793FD204684
:1040800040210022FDF78EFD40F234703A78C2F2F2
:104090000000932101708171017349F293414182C3
:1040A0003AB940F2641105F11500C2F20001FCF7C3
:1040B000D4F998F80000002808BFFCF7FDFC387818
:1040C00098F80010084308D140F2EE22C2F2000234
:1040D000107891781279FCF745FC99F80000B8BB8C
:1040E00040F2EE24C2F2000440F22A7845F643067C
:1040F0002288C2F20008C0F6000640463146FCF7AE
:104100008BF840F2E2376288C2F200073846314647
:10411000FCF782F8A28840F2B634C2F200042046CE
:104120003146FCF779F840F23476C2F20006F01C12
:1041300041460322FCF7E4F906F10900394603225F
:10414000FCF7DEF906F10F0021460322FCF7D8F94F
:1041500099F80000002856D040F210174FF0203098
:104160002E462C46C2F20007C5E9020028612860ED
:1041700046F8040FC5F81900C5F81D00C5F8210060
:10418000C5F8250044F8150F284639460422FCF7E7
:10419000B7F940F2B131C2F2000130460422FCF717
:1041A000AFF905F1090039460422FCF7A9F940F2FC
:1041B000BA3105F10D00C2F200010222FCF7A0F9AC
:1041C0005B20E87340F2C030C2F200000078312179
:1041D000002808BF302129745D2040F21B1168744B
:1041E000C2F2000120460922FCF78AF940F21511BB
:1041F00005F12300C2F200010522FCF781F900203D
:1042000085F8540009E040F25C3040F23471C2F2AB
:104210000000C2F20001FCF720F995F8540010B13B
:1042200002B0BDE8F08700200021FCF719FF284606
:10423000FCF7D6FE002001210124FCF711FF05F157
:104240001500FCF7CDFE85F8544002B0BDE8F087BC
:1042500080B540F2FF730268C4F20003984205DCA7
:10426000B0F1804F0ED040F2004307E042F6004329
:10427000C4F20103984205D040F60003C4F20003E3
:10428000984203D14B6822F070021A4342F6FF3382
:10429000C4F2010398420EDD44F2FF33C4F201037D
:1042A000984218DC42F60043C4F2010398421ED043
:1042B00044F2000317E0B0F1804F18D040F2004301
:1042C000C4F20003984212D040F60003C4F2000387
:1042D00098420CD00FE044F60003C4F20103984268
:1042E00005D044F20043C4F20103984203D1CB68E5
:1042F00022F440721A434B6922F0800E8A6843EA26
:104300000E03D1F800C00360C262A0F18042A2F5A2
:1043100096324FEAB222072AC0F828C007D80123F4
:1043200003FA02F212F0E10F1CBF096901630121D7
:10433000416180BD80B501F01F014FF0010CD0F844
:1043400020E00CFA01F32EEA03030362036A02FA87
:1043500001F11943016280BD10B5446A616A81426E
:104360000CD0A16A81420ED0E16A814211D0216B4A
:10437000814214D0012084F83D0015E0012020770F
:1043800084F83E0010E002202077012084F83F00EE
:104390000AE004202077012084F8400004E008208F
:1043A0002077012084F841002046FEF725FB0020FD
:1043B000207710BD80B50068826822F0770ED1E9C1
:1043C00000C222F0070343EA0E0343EA0C0E6FF02B
:1043D000030303EB3213032BC0F808E014D8DFE823
:1043E00003F00215273CBCF1050F04BF012080BD7E
:1043F000026A036A23F0010303628369096923F0F7
:10440000F00343EA011124E0002080BDD1F808C088
:104410000969036A026A22F001020262826922F0DB
:10442000F00242EA011123F00A0242EA0C0210E013
:10443000D1F808C00969036A23F010030362836995
:10444000026A23F4704322F0A00243EA013142EAF7
:104450000C1281610262002080BDD1E902C30969AA
:10446000826843EA0C0322F47F4243EA01211143AC
:104470008160002080BD000010B504460068D4E9CA
:1044800002C22369016921F440511143016162694B
:1044900043EA0C01E3691143C268194349F20C6312
:1044A0009A431143C1604169A26921F440711143EB
:1044B00043F60002C4F201029042416102D0FDF7CE
:1044C00085FD01E0FDF796FDE26961681923B2F50B
:1044D000004F03FB00F020D14900B0FBF1F048F29F
:1044E0001F51C5F2EB11A0FB01235A094FF69C7333
:1044F000C0F6FF7303F1805302FB0300322303EB8A
:10450000C000A0FB01014FF4F87000EA111000EBAD
:104510000210C1F3421108441CE08900B0FBF1F025
:1045200048F21F51C5F2EB11A0FB01235A094FF6C7
:104530009C73C0F6FF7302FB0300322303EB0010F1
:10454000A0FB0101F02000EA511000EB0210C1F3C2
:10455000431108442168886010BD0000FEE7000098
:1045600080B50844911C414040F2C450C2F20000A2
:104570004160FDF771FF002808BF80BDFEF7CEFF48
:1045800000200021FFF7DAF803A0FFF7C5F8EFF3EA
:10459000108072B6FEE700BF54494D332050574D8E
:1045A000204552520000000010B582B0ADF8060060
:1045B000BDF8060040F2C231C2F200010880BDF829
:1045C000060040F2EC44002804BF0120ADF80600CC
:1045D000C2F200042068002141626FF00101016114
:1045E0002046FEF797F82068416ABDF80620914200
:1045F00002D20169C907F7D002B010BD9CB040F2E9
:10460000C01140F60040C2F200010122C4F20100D4
:1046100040F600070A8080210122C4F20107824689
:10462000FDF7C0FA40F25C30C2F200002A212022DD
:10463000FBF737FF40F2CA3040F23A11C2F20000F5
:10464000C2F20001FBF709FF40F2347040F2791129
:10465000C2F20000C2F20001FBF7FFFEFDF7BCFA58
:10466000FFF7E8F8002441F218061094CDE90E4453
:10467000CDE90C44C4F20206306841F2000B40F070
:10468000100030603068C4F2010B00F0100014908C
:104690001498306840F2E75140F0200030603068F4
:1046A0000CAD00F0200014901498306840F0040025
:1046B0003060306800F0040014901498306840F0C6
:1046C00008003060306800F00800149014984FF42F
:1046D0004470CBF814004FF61440CFF6FF704BF83F
:1046E000001040F201100C9004200D90384629462D
:1046F000FFF738F84FF2F0000C9008200D90384684
:1047000029461094FFF72EF841F21300C0F203403F
:104710000C9001274FF00209584629460D97CDE924
:104720000E94FFF71FF84EF2E770C0F20140CDE99A
:104730000C07504629464FF00108CDE90E94574624
:10474000FFF710F840F2040AC0F2044A384629463E
:10475000CDE90CA8CDE90E941094B846FFF702F805
:104760000AF118100C900827584629460D97109406
:10477000FEF7F8FF0220C0F20240CDE90C0740F638
:10478000000940462946C4F201091094FEF7EAFFE9
:1047900056F8040C012140F0010046F8040C56F8CC
:1047A000040C002200F001000C900C981120FDF781
:1047B00079FA1120FDF766FA40F25460A9F57841C4
:1047C000C2F200004FF4FA73CDE90C44172280E8DE
:1047D0001600C3608461FDF73FFE20B1EFF3108047
:1047E00072B600BFFEE740F2546040F25C35C2F2A0
:1047F00000000CA9C2F20005CDE90C44FDF7E6FD6E
:1048000018B1EFF3108072B6FEE740F27C50002141
:10481000C2F200004FF080424FF6FF73CDE916114F
:10482000CDE91411CDE906111291CDE91011CDE9B0
:104830000E11CDE90C11C0E90021C0E9021301619C
:104840008161FDF709FE20B1EFF3108072B600BF61
:10485000FEE74FF48050149040F27C50C2F200000A
:1048600014A9FDF7FFFF20B1EFF3108072B600BF6F
:10487000FEE740F27C50C2F20000FEF733FB20B1AD
:10488000EFF3108072B600BFFEE740F27C500024C8
:10489000C2F2000006A9CDE90644FDF797FD20B15C
:1048A000EFF3108072B600BFFEE76020CDE90C0484
:1048B00040F27C50C2F200000CA904220E94109425
:1048C000FEF7E6F918B1EFF3108072B6FEE740F29A
:1048D0007C50C2F20000FEF749F940F29C600024CF
:1048E000A9F57441C2F200006423CDE90C44EF2223
:1048F00080E81600C3608461FDF7AEFD18B1EFF3E8
:10490000108072B6FEE72020CDE90C0440F29C60D6
:10491000C2F200000CA9FDF759FD20B1EFF31080A1
:1049200072B600BFFEE740F2C4500021A9F5823202
:10493000C2F2000040F2AF430426CDE91611CDE9E2
:104940001411CDE906111291CDE91011CDE90E1126
:10495000CDE90C11C0E90023C0E9021601618161B3
:10496000FDF77AFD18B1EFF3108072B6FEE74FF451
:104970008050149040F2C450C2F2000014A94E4678
:104980004746FDF76FFF18B1EFF3108072B6FEE7F0
:1049900040F2C450C2F20000FEF7A4FA18B1EFF3DF
:1049A000108072B6FEE72020069040F2C45000242A
:1049B000C2F2000006A90794FDF708FD18B1EFF355
:1049C000108072B6FEE760200C900220CDE90D0445
:1049D00040F2C450C2F200000CA900221094FEF76D
:1049E00057F918B1EFF3108072B6FEE740F2C450E9
:1049F00042F20049C2F20000C4F20109FEF7B6F823
:104A000040F25C40002409F50061C2F2000040F66B
:104A10007F421094CDE90E44CDE90C44CDE9144415
:104A2000C0E90014C0E90242C0E904448461FDF712
:104A300013FD18B1EFF3108072B6FEE707200C905B
:104A40007020CDE90D0440F25C40C2F200000CA9D8
:104A5000CDE90F44FEF732FC18B1EFF3108072B6C7
:104A6000FEE72020149040F25C400024C2F20000D7
:104A700014A91594FDF7AAFC18B1EFF3108072B6D3
:104A8000FEE740F2E830C2F200000E94CDE90C449B
:104A9000047304754FF46021C0E90094846001241C
:104AA000C1610461FCF7A6FB18B1EFF3108072B688
:104AB000FEE740F2E830CDE90C440024C2F20000E9
:104AC0000CA90E94FCF70AFB18B1EFF3108072B634
:104AD000FEE740F2A44009F5E051C2F200000223D3
:104AE000CDE906441A94CDE91844CDE91644CDE940
:104AF0001444CDE91244CDE91044CDE90E44CDE98A
:104B00000C4440F2AF4280E81600C0E90334C0E92B
:104B10000544FEF7E7F918B1EFF3108072B6FEE72F
:104B200040F2A4400024C2F2000006A9CDE90644E8
:104B3000FDF74CFC18B1EFF3108072B6FEE7602071
:104B400014900120CDE9150440F2A440C2F2000007
:104B500014A90022CDE91744CDE91944FEF798F8CD
:104B600018B1EFF3108072B6FEE74FF400501190C9
:104B700040F2A4400024C2F200000CA91094CDE938
:104B80000E44CDE90C441394FDF7FAFB18B1EFF392
:104B9000108072B6FEE740F2A440C2F20000FDF7BA
:104BA000E5FF40F2E46009F5A051C2F200000C23D9
:104BB0004FF4165280E81600C0E90344C0E90534FA
:104BC000C461FEF7A3FB18B1EFF3108072B6FEE7E5
:104BD00040F2345009F51051C2F200004FF01708AE
:104BE000002442F21072C0E90018C0E90242C0E994
:104BF00004448461FDF730FC18B1EFF3108072B605
:104C0000FEE740F2EC4009F50051C2F200004FF619
:104C1000FF72C0E90018C0E90242C0E9044484619F
:104C2000FDF71AFC18B1EFF3108072B6FEE740F200
:104C30000C600021A6F58032C2F2000045F6BF5399
:104C40004FF4C876CDE90E11CDE90C11CDE9141160
:104C5000C0E90023C0E9021601618161FDF7FCFB98
:104C600018B1EFF3108072B6FEE74FF480500C904D
:104C700040F20C60C2F200000CA9FDF7F3FD18B180
:104C8000EFF3108072B6FEE70020CDE9140040F289
:104C90000C60C2F2000014A9FDF798FB18B1EFF305
:104CA000108072B6FEE73846802101223C4601267C
:104CB000FCF778FF384640210122FCF773FFFEF72E
:104CC000FFFDFBF799FE002000210022FBF74AFEC2
:104CD000FBF7F2FE4FF60840CFF6FF70385840F26F
:104CE000C434C0074F48C2F2000418BF26700C90AD
:104CF0004CA0061D4ECE007D0DF1340C8CE84E000C
:104D00004E498DF844004DA0061D14914ECE007DF5
:104D10000DF1540C8CE84E004E498DF864004DA006
:104D2000061D06914ECE007D0DF11C0C8CE84E0048
:104D30004E498DF82C004DA0061D007D00914ECEF1
:104D40000DF1040C8DF8140064208CE80E0004961C
:104D5000FCF712FE2678FCF735F940F26230FCF7DA
:104D600067F900200021FCF77BF93EBB0CA8FCF79B
:104D700037F94FF49670FCF7FFFD00200121FCF796
:104D80006FF914A8FCF72CF94FF49670FCF7F4FDBA
:104D900000200121FCF764F96846FCF721F94FF483
:104DA0009670FCF7E9FD00200121FCF759F906A8EF
:104DB000FCF716F94FF41670FCF7DEFD207810B101
:104DC000FCF700F90CE005F1150006A92C46FBF7ED
:104DD00044FB40F27911C2F200012846FBF73DFB8B
:104DE00038464FF4806100220024FCF7DBFE85F892
:104DF000544040F2C454C2F200042046FDF7C4FC03
:104E000020460021FEF7B8F840F29C60C2F2000094
:104E1000FDF7BAFC40F23450C2F20000FDF7B4FCDA
:104E2000FEE700BF909090922020CBF3F72D312D1C
:104E30003335202091909090000000005241494469
:104E4000454E204D45495B56322B5D2033356D6D07
:104E50000000000046573A204252454C5F302E3940
:104E60002030392E3230323400000000564B3A7A6E
:104E7000617A313238202020202020203230323414
:104E80000000000040F2A440C2F200000021FEF742
:104E9000E3B80000B0B540F2A445C2F200050446F4
:104EA00028460021FEF7D8F82046FFF77DFB28466C
:104EB0000021BDE8B040FEF79FB9000010B584B0F6
:104EC00002200190012002900320039040F2E8307C
:104ED000C2F2000001A9FCF701F9002818BFFCF795
:104EE000F7F840F2E834C2F200042046FCF72AFB4F
:104EF00020460A21FCF760FA2046FCF767FB2046B3
:104F0000FCF774F93F2140F2BE34A1EB9010C2F2DD
:104F10000004208082B240F2BA30C2F2000007A141
:104F2000FBF77AF920880021282840F2C030C2F22D
:104F3000000088BF0121017004B010BD253032642B
:104F4000000000002DE9F04381B040F60806C4F2ED
:104F5000010606F57E74204601210122FCF722FE9F
:104F6000306840F2C437C006C2F2000714D430687B
:104F700080061BD4306840063CD43068000640F1FF
:104F80009A80387800286FD040F25C30C2F200007E
:104F9000322180F8281086E0387888B140F25C3001
:104FA000C2F20000302180F828107CE0387858B335
:104FB00040F25C30C2F20000382180F8281072E024
:104FC00040F2547240F25C30C2F20002C2F20000C1
:104FD0000021127880F8541040F25430002AC2F2B6
:104FE00000005DD1017840F24C72C2F20002302321
:104FF000535455E03878F8B140F25C30C2F200000A
:10500000352180F828104EE040F25471C2F20001C0
:10501000097840F25C30C2F20000002280F854208F
:10502000D1BB40F25430C2F20000007840F24C7123
:10503000C2F2000138222EE040F25471C2F20001A7
:10504000097840F25C30C2F20000002280F854205F
:1050500011BB40F25430C2F20000007840F24C71B3
:10506000C2F20001352216E040F25471C2F2000192
:10507000097840F25C30C2F20000002280F854202F
:1050800051B940F25430C2F20000007840F24C7145
:10509000C2F2000132220A5440F25430C2F200003F
:1050A0000178013101704FF6E850FFF77DFA4FF6B5
:1050B000E850FFF779FA204601210022FCF772FD43
:1050C0000A20FFF771FA204602210122FCF76AFD4F
:1050D0003068C00615D4306880061CD4306840069D
:1050E00056D43068000640F105813878002800F079
:1050F000DA8040F25C30C2F20000332180F82810E0
:10510000F0E0387890B140F25C30C2F20000232128
:1051100080F82810E6E03878002844D040F25C306F
:10512000C2F20000392180F82810DBE040F2297833
:1051300040F25479C2F20008C2F2000998F8000067
:1051400099F80010B0FA80F0B1FA81F140F2DF3541
:1051500040094909C2F2000540F25C320143287857
:10516000C2F200024FF0000382F8543035D1A0B3F0
:1051700040F2EE22C2F20002107891781279FBF729
:10518000F1FBFBF799FC0020287001B0BDE8F0832B
:10519000387800286FD040F25C30C2F2000036212F
:1051A00080F828109EE040F25471C2F200010978A4
:1051B00040F25C30C2F200000022002980F8542046
:1051C00040F0898040F25430C2F20000007840F292
:1051D0004C71C2F2000139227CE0002908BF00288E
:1051E00006D1002000210022FBF7BCFB0120287023
:1051F00040F22E70C2F20000017899F800000029F8
:105200001EBF0028012188F8001000286AD140F252
:105210004C78C2F200080025404688F80350FBF79E
:105220000FF940F22871C2F200010A7840F2EE2C28
:10523000C2F2000C83B22CF8120040F25430C2F2D9
:105240000000B3F5807F057024BFFF202CF812000A
:10525000501CC2B2032A087009D10020087040F225
:10526000C1310120C2F2000189F80000087000205D
:10527000C8F8000036E040F25471C2F2000109782B
:1052800040F25C30C2F20000002280F8542011BBD2
:1052900040F25430C2F20000007840F24C71C2F289
:1052A0000001362216E040F25471C2F20001097882
:1052B00040F25C30C2F20000002280F8542051B964
:1052C00040F25430C2F20000007840F24C71C2F259
:1052D000000133220A5440F25430C2F20000017837
:1052E000013101704FF6E850FFF75EF94FF6E850D4
:1052F000FFF75AF9204602210022FCF753FC0A204E
:10530000FFF752F9204604210122FCF74BFC3068DC
:10531000C00614D4306880061BD43068400644D4DC
:105320003068000640F1A2803878002877D040F23B
:105330005C30C2F20000312180F828108EE038780D
:1053400088B140F25C30C2F200002A2180F82810B7
:1053500084E0387898B340F25C30C2F20000372124
:1053600080F828107AE040F2BE10C2F20000027805
:1053700040F25C31C2F20001002081F8540072B1A9
:1053800040F25471C2F20001087040F22871C2F27A
:105390000001087040F2C131C2F20001087040F211
:1053A0004C71C2F20001086058E03878F8B140F260
:1053B0005C30C2F20000342180F828104EE040F248
:1053C0005471C2F20001097840F25C30C2F2000070
:1053D000002280F85420D1BB40F25430C2F20000C9
:1053E000007840F24C71C2F2000137222EE040F208
:1053F0005471C2F20001097840F25C30C2F2000040
:10540000002280F8542011BB40F25430C2F2000058
:10541000007840F24C71C2F20001342216E040F2F2
:105420005471C2F20001097840F25C30C2F200000F
:10543000002280F8542051B940F25430C2F20000EA
:10544000007840F24C71C2F2000131220A5440F25D
:105450005430C2F200000178013101704FF6E8507B
:10546000FFF7A2F84FF6E850FFF79EF82046042118
:105470000022FCF797FB06F5FF6528461021012264
:10548000FCF790FB3068C0065CBF30685FEA806064
:1054900007D528461021002201B0BDE8F043FCF7F3
:1054A00081BB306840060ED430680006F1D540F26A
:1054B0002E70C2F2000000780028EAD120464FF496
:1054C000806101220AE040F22E70C2F200000078F2
:1054D0000028DED120464FF480610022FCF762FBF9
:1054E00040F2A444C2F2000442F27F5060602046C1
:1054F000FDF7F8FC08B1FBF7EBFD4CF25030FFF77D
:10550000C9FC40F2AF4060602046FDF7EBFC00288C
:10551000BFD0FBF7DDFDBCE730380A2801D20120FF
:10552000704700207047000010B500290AD00878A5
:10553000002807D005487844FBF782F9002801D0FD
:10554000002010BD0248784410BD00003A0300005E
:10555000320300004FEA41034FEA5353A3F580633F
:10556000D3F11E03C8BFD3F1210C0CDD4FF0004274
:1055700042EAC12242EA505232FA03FC8CEAE17C50
:10558000ACEBE1707047102BC4BF0020704703F5EF
:10559000787CBCF1FF3F04D06FF0004282EA21002A
:1055A000704770B500F0C2F849922480002070471F
:1055B000F2E7B0FA80F310FA03F10AD0C3F11D0349
:1055C00003F580634FEA03524FEA415002EBD121C9
:1055D00070474FF00000704770B5DFF848C11CEA13
:1055E000111E1EBF1CEA13159EEA0C0F95EA0C0F44
:1055F00000F06F8081EA03044EEAD47EAE4421EAD3
:105600004C1123EA4C1341F4801143F48013AEF1A2
:105610007F7EA1FB024CA0FB0365361955EB0C0500
:10562000A1FB034C4CF10003A0FB021C16EB0C0683
:10563000654153F10003094218BF46F0010613F417
:10564000007F0BD14FEA03314FEA053041EA155193
:1056500040EA165034036FF003020AE04FEAC32118
:105660004FEAC52041EA555140EA5650F4026FF026
:10567000020202EB2E4201EB025585EACE710AD0FE
:105680005FEA440C18BF24F0004450F1000041F1DF
:10569000000120EAD47040F2FE7C624500D270BD69
:1056A000A84214BF4FF080444FF04044002E08BF82
:1056B0000024BEF1806FA8BFA1F1C041BDE87040D9
:1056C00080F2828001F1C04101F000414FF0000002
:1056D00070470CEA13159EEA0C0F18BF95EA0C0FE1
:1056E00006D081EA030E4FF000000EF0004170BDBD
:1056F00000F01CF88900013E00F007B800F009B87E
:105700004FEA430C5FEA5C5C08D081EA030100F0D9
:105710005BB84FEA410C5FEA5C5CF6D102494FF09E
:10572000000070470000FF070000F87F0EF1020E36
:105730002EF0030E5EF8046B364205D4012A43EBCB
:10574000030515F5001F12D8012841EB010C1CF5CB
:10575000001F0CD80ED14FEAD17C0CEB4C0C0CF195
:10576000020C15F5001F08BF4CEBD37C04E04FF092
:10577000080C01E04FEAD37C0CEB4C0526FA05F649
:1057800006F00706B6F1040C06D20EEB860CBDE857
:1057900070404CF0010C6047DFE80CF0090B02028E
:1057A0004FF00041A1F500214FF0000070BD1946F7
:1057B0001046012851EB010418BFD4F5001484BF32
:1057C000002001F0004170BD0808A0F500114FEA6B
:1057D00031017047040000080000000000000002D2
:1057E00000010000100000000000000000010203A2
:1057F0000406070809000000000102030402030474
:1058000005060708090A0B0C0D0E0F101001020304
:105810000405060708090A0B0C0D0E0F1000000006
:10582000020000000400000008000000100000005A
:10583000FDFFFFFFFBFFFFFFF7FFFFFFEFFFFFFF96
:1058400025640025303364002530356400000000F5
:105850008059000800000020C80100005C01000819
:10586000485B0008C8010020900B00007801000888
:105870001001000043000000F8FFFFFF004040401F
:105880004040404040404141414141404040404013
:1058900040404040404040404040404040050202BF
:1058A000020202020202020202020202022020207E
:1058B00020202020202020020202020202029090DA
:1058C00090909090101010101010101010101010D8
:1058D000101010101010101002020202020288882C
:1058E0008888888808080808080808080808080838
:1058F0000808080808080808020202024000000020
:105900000000000000000000000000000000000097
:105910000000000000000000000000000000000087
:105920000000000000000000000000000000000077
:105930000000000000000000000000000000000067
:105940000000000000000000000000000000000057
:105950000000000000000000000000000000000047
:105960000000000000000000000000000000000037
:105970000000000000000000000000000000000027
:10598000FF0000000024F4000001020304050607E4
:1059900008090A0B0C0D0E0F10111213141516170F
:1059A00018191A1B1C1D1E1F2021222324252627FF
:1059B00028292A2B2C2D2E2F3031323334353637EF
:1059C00038393A3B3C3D3E3F4041424344454647DF
:1059D00048494A4B4C4D4E4F5051525354555657CF
:1059E00058595A5B5C5D5E5F6061626364656667BF
:1059F00068696A6B6C6D6E6F7071727374757677AF
:105A000078797A7B7C7D7E7F898182838485868795
:105A100088898A8B8C8D8E8FCDCCB9DBFBFEFD0007
:105A20005E7FDBB000000000B5C600000000000093
:105A3000F000000000000000000000000000000076
:105A4000F1FC00000000000080818283848586874D
:105A500088898A8B8C8D8E8F90919293949596974E
:105A600098999A9B9C9D9E9FA0A1A2A3A4A5A6A73E
:105A7000A8A9AAABACADAEAFE0E1E2E3E4E5E6E7AE
:105A8000E8E9EAEBECEDEEEF1B5B324A1B5200015A
:105A9000C0D6CF3A00C2C2CEC43A00204252454CD2
:105AA0005F302E3900202020202020C7C0C2C5D062
:105AB000D8C5CDCE202020202020CAE0E4F020B997
:105AC0003A20202020A020A02020202020200020DC
:105AD000202020202020CFC0D3C7C020202020207D
